S01100007376436F6E74726F6C2E7372656349
S11300000C945A000C9464000C9464000C946400E6
S11300100C9464000C9464000C9464000C946400CC
S11300200C9464000C9464000C9464000C946400BC
S11300300C9464000C9464000C9464000C946400AC
S11300400C9464000C9464000C9464000C9464009C
S11300500C9464000C9464000C9464000C9464008C
S11300600C9464000C9464000C9464000C9464007C
S11300700C9464000C9464000C9464000C9464006C
S11300800C9464000C9464000C9464000C9464005C
S11300900C9464000C9464000C9464000C9464004C
S11300A00C9464000C9464000C9464000C9464003C
S11300B00C94640011241FBECFEFD8E0DEBFCDBF87
S11300C00E94D8000C940E020C94000023E030E04F
S11300D070E161E052E044E098E02C9A289A299A71
S11300E02A9A2B9A8FEFE1EEF4E08150E040F04041
S11300F0E1F700C0000085B1872785B985B186275F
S113010085B985B1852785B985B1842785B985B138
S1130110892785B98FEFE1EEF4E08150E040F040AB
S1130120E1F700C0000021503109B9F6089518160E
S1130130190644F4EFE9FFE03197F1F700C000003D
S11301400197C1F708954C9B05C02D9A4C9904C0A2
S11301502D9808950C94000008950F931F93CF9346
S1130160DF938B01419A2FEF39E648E1215030406B
S11301704040E1F700C00000429AC8EED3E09C0181
S11301802C9FC0012D9F900D3C9F900D11240E9427
S1130190970040980C9FC0010D9F900D1C9F900DDF
S11301A011240E949700DF91CF911F910F91089520
S11301B08FEF84B987B91AB88BB90E94660080E0C2
S11301C090E0EE24E394F12CD2E0C0E004E010E0EF
S11301D00BC08E2D9F2D08C08D2F9C2F05C083E052
S11301E090E002C0802F912F489909C0489BFECF10
S11301F08FE39CE90197F1F700C0000034C04999EE
S113020009C0499BFECF8FE39CE90197F1F700C039
S113021000005FC04A9909C04A9BFECF8FE39CE966
S11302200197F1F700C000008AC04B9909C04B9BAD
S1130230FECF8FE39CE90197F1F700C00000B5C041
S11302408230910509F445C02CF48130910509F000
S1130250E2C009C08330910509F471C0843091056E
S113026009F0D9C0A2C0289A4D99B3CF4D9BFECFB7
S1130270409A9FEF29EF30E0915020403040E1F761
S113028000C000000E94A3006AE070E08AE090E0F1
S11302900E94AD0083E090E0289A4FEF23EC39E010
S11302A0415020403040E1F700C0000028984FEF53
S11302B023EC39E0415020403040E1F700C0000019
S11302C0019751F74D9BFECF0C9400008E2D9F2D6E
S11302D08BCF299A4D9980CF4D9BFECF409A4FEFFB
S11302E089EF90E0415080409040E1F700C0000069
S11302F00E94A30065E070E085E090E00E94AD00FC
S113030083E090E0299A2FEF33EC49E0215030400C
S11303104040E1F700C0000029982FEF33EC49E09A
S1130320215030404040E1F700C00000019751F7F0
S11303304D9BFECF0C9400008D2F9C2F55CF2A9AF5
S11303404D994DCF4D9BFECF409A8FEF99EF20E012
S1130350815090402040E1F700C000000E94A300BB
S113036063E070E083E090E00E94AD0083E090E001
S11303702A9A3FEF43EC29E0315040402040E1F716
S113038000C000002A983FEF43EC29E03150404080
S11303902040E1F700C00000019751F74D9BFECFCC
S11303A00C94000083E090E01FCF2B9A4D991ACF54
S11303B04D9BFECF409A3FEF49EF80E031504040E3
S11303C08040E1F700C000000E94A3006D2F7C2F45
S11303D08D2F9C2F0E94AD0083E090E02B9A2FEF8D
S11303E033EC49E0215030404040E1F700C00000C8
S11303F02B982FEF33EC49E0215030404040E1F797
S113040000C00000019751F74D9BFECF0C940000F3
S1130410802F912FE9CE0C940000E6CEF894FFCF04
S9030000FC
