:100000000C946E000C94A2000C94A2000C94A2001C
:100010000C94A2000C94A2000C94A2000C94A200D8
:100020000C94A2000C94A2000C94A2000C94A200C8
:100030000C94A2000C94A2000C94A2000C94A200B8
:100040000C94080D0C94A2000C94A7070C94EA07DA
:100050000C94A2000C94A2000C94A2000C94A20098
:100060000C94C7040C94A200030E060EF90DFD0DAE
:10007000210E0A0E0E0E140E180E1C0E00000007A4
:100080005002010000030406000000000000000010
:100090000000010204081020408001020408102022
:1000A0000102040810200208010410204004040486
:1000B0000404040404020202020202030303030311
:1000C00003050505050505050000000025002800BD
:1000D0002B002E0026031704A908450311241FBE78
:1000E000CFEFD8E0DEBFCDBF14BE0FB6F894A89511
:1000F00080916000886180936000109260000FBE64
:1001000012E0A0E0B1E0ECE2FDE102C005900D924A
:10011000AC31B107D9F723E0ACE1B2E001C01D92E8
:10012000A33CB207E1F710E0CDE6D0E004C0219790
:10013000FE010E94730ECA36D107C9F70E94F90C5E
:100140000C94890E0C94000080E492E00E94170643
:1001500080E492E00E940B0780E492E00E945D063A
:100160006EE071E080E492E00E94560941E060E0B8
:1001700080E492E00E946B066EE171E080E492E020
:100180000E94560960ED77E080E090E00E94770DD4
:1001900080E492E00E945D0640E060E080E492E04E
:1001A0000E946B066EE171E080E492E00E945609C5
:1001B00041E060E080E492E00E946B066FE271E053
:1001C00080E492E00E94560964E170E080E090E0F3
:1001D0000C94770D83E090E02C9A2FEF34E34CE001
:1001E000215030404040E1F700C000002C982FEF34
:1001F00034E34CE0215030404040E1F700C00000C3
:10020000019751F70C94A4001816190644F4EFE96D
:10021000FFE03197F1F700C000000197F5CF089596
:1002200040E855E260E070E08CE093E00E94250831
:10023000ECE1F2E085E090E0938382839583848310
:10024000918380838FEF84B99FEE97B915B890E1C1
:1002500098B91AB88BB90E94EA0060E471E08CE0AA
:1002600093E00E9473098AE090E00C940401199BCA
:1002700027C080E492E00E945D066EE171E080E4B8
:1002800092E00E94560941E060E080E492E00E9422
:100290006B066BE471E080E492E00E945609429A9A
:1002A0001999FECF41E060E080E492E00E946B0685
:1002B0006BE571E080E492E00E945609429808954F
:1002C0000C9400000895EF92FF920F931F93CF9329
:1002D000DF937C018B01EA0141E060E080E492E081
:1002E0000E946B066CE671E080E492E00E94560981
:1002F0004098CE010E9404012A98C8EED3E0EC9EFB
:10030000C001ED9E900DFC9E900D11240E940401F1
:1003100041E060E080E492E00E946B066EE771E0ED
:1003200080E492E00E94560958980C9FC0010D9FEE
:10033000900D1C9F900D11240E940401319841E002
:1003400060E080E492E00E946B066FE871E080E478
:1003500092E0DF91CF911F910F91FF90EF900C945D
:1003600056098AE090E0409A2FEF34E34CE02150A8
:1003700030404040E1F700C0000040982FEF34E3E8
:100380004CE0215030404040E1F700C000000197B0
:1003900051F7409A089580E492E00E945D0640E0A3
:1003A00060E080E492E00E946B0664E272E080E428
:1003B00092E00E94210941E060E080E492E00E9426
:1003C0006B066BE272E080E492E00E94210941E05A
:1003D0006EE080E492E00E946B0660911C027091D6
:1003E0001D024AE050E080E492E00E94E8094D9B43
:1003F0003EC04B992AC04B9BFECF84E190E00E9407
:10040000040180911C0290911D02019690931D029F
:1004100080931C0241E06EE080E492E00E946B0653
:1004200060911C0270911D024AE050E080E492E06D
:100430000E94E80980911C0290911D02CC97B9F6A8
:1004400010921D0210921C02D2CF4C99D0CF4C9B1F
:10045000FECF84E190E00E94040180911C02909103
:100460001D02019790931D0280931C02B0CF089546
:10047000CF93DF9380E492E00E945D0640E060E06D
:1004800080E492E00E946B0662E372E080E492E016
:100490000E94210941E060E080E492E00E946B0646
:1004A00069E372E080E492E00E94210941E06EE09D
:1004B00080E492E00E946B0660912002709121021C
:1004C0004AE050E080E492E00E94E809C3E0D0E016
:1004D0004E9B62C060EA71E08CE093E00E94730979
:1004E00060912202709123024AE050E08CE093E098
:1004F0000E943D0A4B992AC04B9BFECF84E190E0BD
:100500000E94040180912002909121020196909313
:1005100021028093200241E06EE080E492E00E949C
:100520006B0660912002709121024AE050E080E465
:1005300092E00E94E8098091200290912102CC97DC
:1005400031F5109221021092200221C04C991FC057
:100550004C9BFECF84E190E00E9404018091200238
:10056000909121020197909321028093200241E013
:100570006EE080E492E00E946B0660912002709130
:1005800021024AE050E080E492E00E94E809D09322
:100590002302C09322029CCFDF91CF91089584E182
:1005A00090E00E9404010E94CB010C943802409A12
:1005B0002C9A80912202909123024E990AC00097B2
:1005C00041F44E9BFECF8AE090E00E9404010C941F
:1005D000CF020397D1F580E492E00E945D066EE1C0
:1005E00071E080E492E00E94560941E060E080E41E
:1005F00092E00E946B066AEA71E080E492E00E9459
:10060000560988EC90E00E94040118991EC0319AA6
:10061000189919C0589A2FEF89EF90E02150804027
:100620009040E1F700C000000E9437016091200275
:10063000709121024AEF50E080911C0290911D02BE
:100640000E946301E5CF0C94B101089522E040E1DE
:1006500068E380E492E00E94F40568EB71E084E2D4
:1006600092E00E94BD0A68EC71E08BE292E00E9489
:10067000BD0A66ED71E082E392E00E94BD0A66EE7B
:1006800071E089E392E00C94BD0A89E392E00E9454
:100690004F0A82E392E00E944F0A8BE292E00E94AE
:1006A0004F0A84E292E00C944F0A80917C0290E021
:1006B00020917D02821B9109089590917D02809185
:1006C0007C02981750F4E92FF0E0E258FD4F2081AA
:1006D00030E09F5F90937D0202C02FEF3FEFC90192
:1006E0000895E0917D0280917C02E81730F4F0E0FB
:1006F000E258FD4F808190E008958FEF9FEF0895BD
:100700000895CF92DF92EF92FF920F931F93CF93B2
:10071000DF937C01CB018A0120915802222389F0CA
:10072000EB016B01C40ED51ECC15DD0569F0699196
:10073000D701ED91FC910190F081E02DC701099561
:10074000F3CF642F0E948F04C801DF91CF911F91D6
:100750000F91FF90EF90DF90CF900895CF93DF93AC
:100760001F92CDB7DEB76983209158022223D1F0C2
:1007700020915902203240F021E030E0FC01338327
:10078000228380E090E015C080915A02E82FF0E0CB
:10079000E55AFD4F998190838F5F80935A02809331
:1007A000590205C061E0CE0101960E948F0481E0EC
:1007B00090E00F90DF91CF910895FC011382128297
:1007C00088EE93E0A0E0B0E084839583A683B783AE
:1007D00088EF91E091838083089510927D021092BA
:1007E0007C0210925A02109259020C941B0481E070
:1007F0008093580260937B0210925A021092590221
:1008000008950F93062F21E0409159026BE572E0A5
:1008100080917B020E94390410925A021092590270
:10082000109258020F91089561E00C9401048CE439
:1008300092E00C94DD0310920B0381E08093090396
:100840001092080361E082E10E94220E61E083E1E0
:100850000E94220EE9EBF0E080818E7F8083808110
:100860008D7F808388E48093B80085E48093BC000A
:1008700008950F93413208F04AC090910B039111F3
:10088000FCCF32E030930B03009309033FEF30932A
:100890009E021092E3024093E202562FA4EEB2E0D1
:1008A000FB013E2F351B341718F431913D93F9CFDE
:1008B00010920A0330910A03880F832B80930A0356
:1008C00080910803813061F41092080380910A033B
:1008D0008093BB008091BC0083FDF8CF85EC01C004
:1008E00085EE8093BC00222321F080910B0382309F
:1008F000D1F380919E028F3F79F080919E028032E9
:1009000041F080919E02803331F094E005C091E087
:1009100003C092E001C093E0892F0F9108954091A8
:10092000C002262F30E0240F311D21323105DCF4C6
:1009300020910B032430C9F4FC0180E090E086177D
:1009400058F43091C0022191DC01AE53BD4FA30F8A
:10095000B11D2C930196F3CF8091C002680F609374
:10096000C00280E0089581E0089582E0089585ED59
:100970008093BC008091BC0084FDFCCF10920B03DF
:10098000089585EC8093BC0010920B0308951F928C
:100990000F920FB60F9211242F933F934F935F93B3
:1009A0006F937F938F939F93AF93BF93EF93FF9337
:1009B0008091B900887F803609F49EC078F588322E
:1009C00009F45DC090F4803109F456C038F48823EE
:1009D00009F4F5C0883009F44FC0F5C0883109F436
:1009E0004EC0803209F45FC0EEC0803409F46AC0A2
:1009F00058F4803309F457C0883309F0E4C0809379
:100A00009E020E94C104DFC0803509F44FC08835C2
:100A100009F45DC0883409F0D6C0D3C0883909F420
:100A2000C4C0A8F4883709F467C038F4883609F4DC
:100A300063C0803709F460C0C6C0883809F4B5C007
:100A4000803909F45FC0803809F0BDC05BC0803BCD
:100A500009F483C038F4803A09F466C0883A09F48E
:100A60007CC0B1C0803C09F4A4C0883C09F4A1C09A
:100A7000883B09F487C0A7C080910A0310C09091F9
:100A8000E3028091E202981770F5E091E30281E0C1
:100A90008E0F8093E302F0E0EC51FD4F8081809354
:100AA000BB0085EC83C080939E028BC0E091E30283
:100AB00081E08E0F8093E3028091BB00F0E0EC5167
:100AC000FD4F80839091E3028091E2026BC0E09140
:100AD000E30281E08E0F8093E3028091BB00F0E09F
:100AE000EC51FD4F80838091090381116AC081E040
:100AF0008093080384EA5EC083E080930B03109226
:100B00009F02CFCF80919F02803208F04EC0E091CB
:100B10009F0281E08E0F80939F028091BB00F0E0E6
:100B2000E056FD4F8083BDCF0E94C10480919F029B
:100B3000803230F4E0919F02F0E0E056FD4F1082E9
:100B400060919F0270E0E0910403F091050380EA58
:100B500092E0099510929F0236C084E080930B03C7
:100B60001092C1021092C002E0910603F0910703B7
:100B700009958091C002811105C081E08093C00277
:100B80001092C202E091C10281E08E0F8093C102F7
:100B9000F0E0EE53FD4F80818093BB009091C10245
:100BA0008091C002981708F47CCF85E88093BC0040
:100BB0000AC085EC8093BC0010920B0304C0109215
:100BC0009E020E94B704FF91EF91BF91AF919F9158
:100BD0008F917F916F915F914F913F912F910F90E6
:100BE0000FBE0F901F901895FC011382128288E0AF
:100BF00092E09183808364834187228713860895DE
:100C00001F93CF93DF93EC01162F6C818CE492E05D
:100C10000E94F7036B85612B8CE492E00E94AE0387
:100C20008CE492E0DF91CF911F910C94140428E0A2
:100C3000FC01238760E00C9400060F931F93CF9371
:100C40008C01C62F64600E94000681E090E00E9443
:100C50009D0D6C2F6B7FC8010E94000682E390E01F
:100C6000CF911F910F910C949D0D1F93CF93DF9304
:100C7000EC01162F0E940006612FCE01DF91CF916B
:100C80001F910C941D060F931F93CF93DF938C013C
:100C9000C62FD42F607F642B0E94350680E1C89F49
:100CA000B00111246D2BC801DF91CF911F910F91DD
:100CB0000C94350640E00C94430661E00E945A060D
:100CC00080ED97E00C949D0D62E00E945A0680ED45
:100CD00097E00C949D0DCF93DF93CDB7DEB72897A7
:100CE0000FB6F894DEBF0FBECDBF9C0188E0E6E0F2
:100CF000F1E0DE01119601900D928A95E1F7F9017C
:100D00008085841710F44FEF480FFE013196E40FF1
:100D1000F11DE40FF11D9081690F6068C9012896EB
:100D20000FB6F894DEBF0FBECDBFDF91CF910C940C
:100D30005A06FC016681262F246026836C600C9481
:100D40005A0641E00E94430681E090E00895CF9367
:100D5000DF93EC01423018F08D8188608D834887E5
:100D6000222329F0413019F48D8184608D8362E360
:100D700070E080E090E00E94770D6B85CE010E94CC
:100D8000000668EE73E080E090E00E94770D60E37B
:100D9000CE010E94350684E991E10E949D0D60E339
:100DA000CE010E94350684E991E10E949D0D60E329
:100DB000CE010E94350686E990E00E949D0D60E21A
:100DC000CE010E9435066D816062CE010E945A06F6
:100DD00084E08E83CE010E949906CE010E945D06BA
:100DE00082E08F8366E0CE010E945A06CE01DF9139
:100DF000CF910C946406CF93DF93EC018CE492E0E6
:100E00000E94ED031D8220E04A856985CE01DF91B5
:100E1000CF910C94A7060C94FB06FC012485358524
:100E2000F901E05CFF4F8081918132962081318110
:100E3000821B930B8F7399270895DC011C96ED910B
:100E4000FC911D97DF01A05CBF4F2D913C91119744
:100E500012968D919C9111972817390739F08D9131
:100E60009C91E80FF91F808190E008958FEF9FEF2C
:100E70000895FC01A485B585FD01E05CFF4F20814C
:100E800031813296808191812817390779F08081EC
:100E90009181A80FB91F8C91208131812F5F3F4F25
:100EA0002F7333273183208390E008958FEF9FEFD6
:100EB0000895FC0181A1882329F0A489B5898C912A
:100EC00086FFFBCF11A208950F931F93CF93DF935B
:100ED000FC01A685B7858D01005C1F4FE801888164
:100EE000998101968F739927AD014E5B5F4FEA019F
:100EF0002881398128173907D1F3E8012881398100
:100F0000A20FB31F6C93A685B785A05CBF4F119647
:100F10009C938E93A689B7892C9181E090E0078CF1
:100F200002C0880F991F0A94E2F7822B8C9381E00C
:100F300081A30488F589E02D80818064808381E02D
:100F400090E0DF91CF911F910F91089508951F9226
:100F50000F920FB60F9211242F934F935F938F939D
:100F60009F93EF93FF938091C00082FD1CC020915E
:100F7000C6008091B2039091B3034091B4035091A5
:100F8000B50301968F7399274817590771F0E091BF
:100F9000B203F091B303EE58FC4F20839093B30358
:100FA0008093B20302C08091C600FF91EF919F91A0
:100FB0008F915F914F912F910F900FBE0F901F90C7
:100FC00018958CE093E00E940D07892B11F00C948A
:100FD000A60708951F920F920FB60F9211242F9318
:100FE0003F938F939F93EF93FF9320916E033091E4
:100FF0006F0380917003909171032817390731F4C2
:101000008091C1008F7D8093C10014C0E091700376
:10101000F0917103E25DFC4F20818091700390910B
:10102000710301968F7399279093710380937003D6
:101030002093C600FF91EF919F918F913F912F9147
:101040000F900FBE0F901F901895CF92DF92EF92E6
:10105000FF92CF93DF93EC016A017B014115514E62
:101060006105710509F1EC89FD8981E090E008A036
:1010700002C0880F991F0A94E2F7808360E079E04C
:101080008DE390E0A70196010E94510EDA01C9019B
:101090000197A109B109B695A795979587959C01E8
:1010A000211580E13807A8F0EC89FD89108260E8FD
:1010B00074E88EE190E0A70196010E94510EDA01DA
:1010C000C9010197A109B109B695A795979587958B
:1010D0009C01E889F9893083EA89FB89208319A278
:1010E000EE89FF89408181E090E09C010C8C02C078
:1010F000220F331F0A94E2F7242B2083EE89FF8905
:1011000040819C010D8C02C0220F331F0A94E2F72C
:10111000242B2083EE89FF8940819C010E8C02C024
:10112000220F331F0A94E2F7242B2083EE89FF89D4
:1011300020810F8C02C0880F991F0A94E2F78095D6
:1011400082238083DF91CF91FF90EF90DF90CF904B
:101150000895ECE0F3E01382128288EE93E0A0E0C1
:10116000B0E084839583A683B78380E192E0918386
:10117000808382E793E0958784878EE293E0978768
:10118000868785EC90E0918B808B84EC90E0938B4C
:10119000828B80EC90E0958B848B81EC90E0978B38
:1011A000868B82EC90E0918F808F86EC90E0938F1D
:1011B000828F84E0848F83E0858F87E0868F85E04F
:1011C000878F81E080A30895CF92DF92EF92FF9204
:1011D0000F931F93CF93DF936C01EB017B01E40E20
:1011E000F51E00E010E0CE15DF0561F06991D60133
:1011F000ED91FC910190F081E02DC6010995080F59
:10120000191FF1CFC801DF91CF911F910F91FF906E
:10121000EF90DF90CF9008956115710579F0FB0193
:1012200001900020E9F73197AF01461B570BDC0115
:10123000ED91FC910280F381E02D099480E090E033
:101240000895AF92BF92CF92DF92EF92FF920F93E9
:101250001F93CF93DF937C016B01C0E0D0E000E0EF
:1012600010E0D60114968D919C911597C817D90757
:1012700088F4D701ED91FC91A080B180BE01C60138
:101280000E94D30A682FC701F5010995080F191F9D
:101290002196E7CFC801DF91CF911F910F91FF9069
:1012A000EF90DF90CF90BF90AF9008950C940C0911
:1012B000DC01ED91FC910190F081E02D09940F93F8
:1012C0001F93CF93DF93EC016DE00E9458098C01CE
:1012D0006AE0CE010E945809800F911FDF91CF91E3
:1012E0001F910F9108950F931F93CF93DF93EC01FC
:1012F0000E940C098C01CE010E945F09800F911F92
:10130000DF91CF911F910F9108958F929F92AF928D
:10131000BF92CF92DF92EF92FF920F931F93CF93E2
:10132000DF93CDB7DEB7A1970FB6F894DEBF0FBE3F
:10133000CDBF6C01142FE52FCB01022F19A2223053
:1013400008F40AE07E0121E2E20EF11C802E912CCD
:10135000A12CB12C612F7E2FA50194010E94510E6A
:10136000029F1019112481E0E81AF1081A3014F4D0
:10137000105D01C0195CF7011083122FE32FCA0121
:10138000232B242B252B31F7B701C6010E940C0912
:10139000A1960FB6F894DEBF0FBECDBFDF91CF91FF
:1013A0001F910F91FF90EF90DF90CF90BF90AF9083
:1013B0009F908F9008952115310541F4DC01ED9146
:1013C000FC910190F081E02D642F09940C94850923
:1013D0009A01AB0160E070E00C94DB09CF92DF92E0
:1013E000EF92FF920F931F93CF93DF932115310557
:1013F00081F4DC01ED91FC910190F081E02D642FEE
:10140000DF91CF911F910F91FF90EF90DF90CF90E0
:1014100009942A30310501F577FF1DC06A017B016F
:10142000EC016DE20E9458098C0144275527BA014E
:101430004C195D096E097F092AE0CE010E948509D9
:10144000800F911FDF91CF911F910F91FF90EF902F
:10145000DF90CF9008952AE0DF91CF911F910F91F7
:10146000FF90EF90DF90CF900C9485099A01AB012B
:10147000770F660B770B0C94EE090F931F93CF93A6
:10148000DF93EC010E94360A8C01CE010E945F09B5
:10149000800F911FDF91CF911F910F910895FC0153
:1014A000808191810C947C0BCF93DF93EC01888138
:1014B0009981009711F00E947C0B198218821D827D
:1014C0001C821B821A82DF91CF9108950F931F9384
:1014D000CF93DF93EC018B016F5F7F4F8881998100
:1014E0000E94050C009731F0998388831B830A833F
:1014F00081E001C080E0DF91CF911F910F910895AD
:10150000CF93DF93EC0188819981892B29F08A811F
:101510009B818617970760F4CE010E94660A882394
:1015200041F08C819D81892B19F4E881F981108229
:1015300081E0DF91CF910895EF92FF920F931F9377
:10154000CF93DF93EC017B018A01BA010E94800AEC
:10155000811104C0CE010E94540A07C01D830C8370
:10156000B701888199810E94820ECE01DF91CF91CF
:101570001F910F91FF90EF900895FC01118210824E
:10158000138212821582148216826115710551F040
:10159000FB0101900020E9F73197AF01461B570B83
:1015A0000C949C0A0895FC0124813581621773070D
:1015B00048F480819181009729F0FC01E60FF71F24
:1015C0008081089580E008950F931F93CF93DF9358
:1015D0008230910510F482E090E0E091C103F09137
:1015E000C20320E030E0A0E0B0E0309719F1408184
:1015F00051810281138148175907C8F08417950754
:1016000069F4109731F012960C93129713961C936D
:1016100027C00093C1031093C20322C021153105D6
:1016200019F04217530718F49A01BD01EF01DF01C9
:10163000F801DBCF21153105F9F0281B390B2430D7
:10164000310580F48A819B816115710521F0FB01D0
:101650009383828304C09093C2038093C103FE01ED
:10166000329644C0FE01E20FF31F81939193225002
:101670003109398328833AC02091BF033091C003D8
:10168000232B41F420910201309103013093C003D8
:101690002093BF03209100013091010121153105F4
:1016A00041F42DB73EB74091040150910501241B30
:1016B000350BE091BF03F091C003E217F307A0F4EC
:1016C0002E1B3F0B2817390778F0AC014E5F5F4F98
:1016D0002417350748F04E0F5F1F5093C003409307
:1016E000BF038193919302C0E0E0F0E0CF01DF916E
:1016F000CF911F910F910895CF93DF93009709F435
:1017000081C0FC01329713821282A091C103B09173
:10171000C203109781F420813181820F931F2091A1
:10172000BF033091C0032817390751F5F093C00368
:10173000E093BF0367C0ED0120E030E0CE17DF0784
:1017400040F44A815B819E0141155105F1F0EA01A7
:10175000F5CFD383C28340815181840F951FC81771
:10176000D90759F488819981840F951F0296918336
:1017700080838A819B81938382832115310529F49B
:10178000F093C203E093C1033DC0E901FB83EA8308
:1017900049915991C40FD51FEC17FD0761F4808161
:1017A0009181840F951F0296E90199838883828134
:1017B00093819B838A83E0E0F0E012968D919C9167
:1017C0001397009719F0FD01DC01F7CF8D919C91E3
:1017D00011979D012E5F3F4F820F931F2091BF03F2
:1017E0003091C0032817390769F4309729F4109213
:1017F000C2031092C10302C013821282B093C003CD
:10180000A093BF03DF91CF9108956F927F928F9243
:101810009F92AF92BF92CF92DF92EF92FF920F937F
:101820001F93CF93DF93009789F4CB01DF91CF9182
:101830001F910F91FF90EF90DF90CF90BF90AF90EE
:101840009F908F907F906F900C94E40AFC01E60FBC
:10185000F71F9C0122503109E217F30708F4A9C0D1
:10186000EC01D9010D911C91119706171707B0F0E3
:101870000530110508F49BC0C80104978617970727
:1018800008F495C002501109061B170B0193119320
:101890006D937C93CF010E947C0B89C05B01A01AE1
:1018A000B10A4C01800E911EA091C103B091C203F8
:1018B000612C712CE12CF12C109709F446C08D910C
:1018C0009C911197A815B905B1F56C0142E0C40EC1
:1018D000D11CCA14DB0478F14C018A189B086401FE
:1018E00042E0C40ED11C1296BC9012971396AC9194
:1018F000B5E0CB16D10440F0B282A38391828082FE
:10190000D9016D937C9309C00E5F1F4F800F911F0B
:10191000F90191838083EB2DFA2FE114F10431F06A
:10192000D7011396FC93EE93129741C0F093C20334
:10193000E093C1033CC06816790608F43C017D01C0
:1019400012960D90BC91A02DB7CF8091BF039091BE
:10195000C00388169906E1F466167706C8F48091EC
:10196000000190910101009741F48DB79EB740911D
:10197000040150910501841B950BE817F907C8F481
:10198000F093C003E093BF03F901718360830FC03C
:10199000CB010E94E40A7C01009759F0A801BE0126
:1019A0000E94790ECE010E947C0BC70104C0CE01BB
:1019B00002C080E090E0DF91CF911F910F91FF90E6
:1019C000EF90DF90CF90BF90AF909F908F907F90DF
:1019D0006F900895E2EFF0E0808180618EBB80E837
:1019E00080839EB39083E1E6F0E0808381E0808392
:1019F00008950E94EA0C0E94A70D0E941001C1EEFA
:101A0000D7E00E94D7022097E1F30E94E107F9CFC7
:101A10001F920F920FB60F9211242F933F938F9323
:101A20009F93AF93BF938091B7039091B803A09118
:101A3000B903B091BA033091B60323E0230F2D37D9
:101A400020F40196A11DB11D05C026E8230F0296C2
:101A5000A11DB11D2093B6038093B7039093B803E3
:101A6000A093B903B093BA038091BB039091BC03D8
:101A7000A091BD03B091BE030196A11DB11D80933D
:101A8000BB039093BC03A093BD03B093BE03BF916F
:101A9000AF919F918F913F912F910F900FBE0F901B
:101AA0001F9018953FB7F8948091BB039091BC03A9
:101AB000A091BD03B091BE0326B5A89B05C02F3FE2
:101AC00019F00196A11DB11D3FBFBA2FA92F982F64
:101AD0008827820F911DA11DB11DBC01CD0142E0DF
:101AE000660F771F881F991F4A95D1F70895CF92E7
:101AF000DF92EF92FF92CF93DF936B017C010E9404
:101B0000520DEB01C114D104E104F10479F00E94FB
:101B1000520D6C1B7D0B683E7340A0F381E0C81A28
:101B2000D108E108F108C851DC4FECCFDF91CF912B
:101B3000FF90EF90DF90CF900895019739F0880FD4
:101B4000991F880F991F02970197F1F708957894CC
:101B500084B5826084BD84B5816084BD85B58260B2
:101B600085BD85B5816085BDEEE6F0E08081816050
:101B70008083E1E8F0E01082808182608083808150
:101B800081608083E0E8F0E0808181608083E1EB28
:101B9000F0E0808184608083E0EBF0E08081816010
:101BA0008083E1E9F0E080818260808380818160D0
:101BB0008083E0E9F0E0808181608083EAE7F0E003
:101BC00080818460808380818260808380818E7F39
:101BD00080838081806880831092C100089590E0A6
:101BE000FC013197EA30F10560F5EC5CFF4F0C9495
:101BF000730E809180008F7703C0809180008F7D6D
:101C000080938000089584B58F7702C084B58F7D5E
:101C100084BD08958091B0008F7703C08091B0009B
:101C20008F7D8093B0000895809190008F7707C0DA
:101C3000809190008F7D03C080919000877F80937A
:101C4000900008951F93CF93DF93282F30E0F90180
:101C5000E458FF4F8491F901EE56FF4FD491F901FA
:101C6000E355FF4FC491CC23C1F0162F81110E9480
:101C7000EF0DEC2FF0E0EE0FFF1FE853FF4FA591A3
:101C8000B4919FB7F894111104C08C91D095D823CA
:101C900002C0EC91DE2BDC939FBFDF91CF911F91AF
:101CA0000895A1E21A2EAA1BBB1BFD010DC0AA1F9D
:101CB000BB1FEE1FFF1FA217B307E407F50720F0B5
:101CC000A21BB30BE40BF50B661F771F881F991F30
:101CD0001A9469F760957095809590959B01AC0179
:101CE000BD01CF010895EE0FFF1F0590F491E02D87
:101CF0000994FB01DC0102C001900D92415050405B
:101D0000D8F70895FB01DC0101900D920020E1F766
:101D1000089510E0CDE6D0E004C0FE010E94730EED
:0C1D20002196CE36D107C9F7F894FFCF0A
:101D2C000000C303800000004000140054002E2E5D
:101D3C002E496E696369616E646F2E2E2E00536599
:101D4C006C61646F7261206120566163756F002055
:101D5C002D2D2D4F706572616E646F2D2D2D200011
:101D6C00416775617264616E646F002046617A65CB
:101D7C006E646F20566163756F20004465736C69E7
:101D8C0067616E646F20426F6D6261002053656CF9
:101D9C00616E646F2041677561726465200020522A
:101DAC00657369737465636961204F464620002032
:101DBC00202046696E616C697A61646F2020200076
:101DCC006F6E2070726573733A004167756172644F
:101DDC002E20506564616C00416A757374652064D3
:101DEC00652074656D706F00747365672D53656C39
:101DFC006167656D3A00416A75737465206465208E
:101E0C0054656D706F00747365672D4573667269E8
:101E1C0061723A0000000000AE03810355035D03BC
:101E2C007103800300000000A106E408000000001C
:0C1E3C006407E4080D0739071D0759076B
:00000001FF
